:1000000010C022C021C020C01FC01EC01DC01CC007
:100010001BC01AC019C018C017C016C015C014C024
:1000200013C011241FBECFE5D1E0DEBFCDBF10E06D
:10003000A0E6B0E0E0E8F0E002C005900D92A03A42
:10004000B107D9F702D01AC0DBCF8FEF8ABB80E6A9
:1000500090E0805CE0E6F0E091919BBBA3EFB1E023
:100060001197F1F700C000008E13F6CF1BBAE3EC36
:10007000F9E03197F1F700C00000ECCFF894FFCF22
:100080007F7F08087F7F007C7E0B0B7E7C007F7F5C
:1000900009090F06007F7F09090F0600070F78780E
:1000A0000F07000000627351494F46003E7F4945EB
:1000B0007F3E0040447F7F4040003E7F49497B3285
:00000001FF
